:0C00000042C0BCC0C5C0FCCFFBCFFACF93
:10000C00F9CF76C0F7CFF6CFF5CFF4CFF3CF55536A
:10001C0042204750494220436F6E74726F6C6C657E
:10002C00720D0A00422E472E2C204C50564F2C207D
:10003C0046452C20536C6F76656E69610D0A000085
:10004C0048572056312E302C20417567757374201B
:10005C00323030332C2046572056322E342E312C51
:10006C00204E6F76656D62657220323030360D0A27
:10007C00000010024445AA000000F894EE27ECBBE7
:10008C00E5BFF8E1F1BDE1BD8DE0A2E0BB27ED934A
:10009C008A95E9F780E092E0A0E6ED930197E9F705
:1000AC00E4E8F0E0C8953196802DC8953196902DF6
:1000BC000097B9F0C8953196A02DC8953196B02D02
:1000CC00C8953196102CC89531966E2F7F2FF02D38
:1000DC00E12DC89531960D920197D9F7E62FF72FA0
:1000EC00E1CFEFE5EDBFE2E0EEBFC0EED0E06AC2DB
:1000FC000A92AA93BA93EA93FA93EFB7EA9344203D
:10010C0019F4E62DE77F6E2EE62DE095E87011F0E0
:10011C00AA2009F406C04394A41419F4E52DE06454
:10012C005E2E63FE03C00D2C0E2809F40BC0439405
:10013C00ED2DFE2DA42DB0E0EA17FB0719F4E52DEB
:10014C00E0645E2E0B2C0C2859F0E82DF92D31961D
:10015C008E2E9F2EBE16CF0619F4E52DE0645E2E72
:10016C00E991EFBFF991E991B991A991099018958D
:10017C00EA93EFB7EA93E52DE0685E2EE991EFBFC5
:10018C00E9911895EA93EFB7EA93E2E0E9BFE0E46E
:10019C00EBBFE0E0E2BF4424E991EFBFE991189591
:1001AC00E3E4E4BB979AE3E7E4BBEFEFEABB089523
:1001BC00E0E0EABBE3E4E4BB9798EFE4E4BB08952A
:1001CC00AE98E881E095EBBB9A9B02C09B9901C06D
:1001DC0007C0552021F0E52DE3605E2E18C0F4CF4A
:1001EC0044249B9907C0552021F0E52DE2605E2E3A
:1001FC000EC0F7CFAC989A9907C0552021F0E52D89
:10020C00E1605E2E04C0F7CFAC9AE52D13C0AE9A18
:10021C00E52D10C0EFEFE7BBE881E8BB849B04C081
:10022C004424552021F4FACF4424919A9198E0E08B
:10023C00E7BBE52D219608950A93EFEFE7BB00E0AD
:10024C00E02FA981BA81F0E0EA0FFB1FC895E02DE1
:10025C00E03091F0E02FF0E0EA0FFB1FC895E02DA5
:10026C00E8BB849B04C04424552031F4FACF4424C9
:10027C00919A91980F5FE4CFE0E0E7BBE52D5FC06A
:10028C000A9388249924E1E04E2EE62DE8606E2E28
:10029C00A3949A9B02C09B9901C008C0552029F0D9
:1002AC00E52DE3605E2EE52D4AC0F3CF839B07C09E
:1002BC00E1E04E2E552011F0E52D41C0F7CF90987E
:1002CC00E1E04E2E06B3909A003161F5839B07C096
:1002DC00E1E04E2E552011F0E52D31C0F7CF90986E
:1002EC00E1E04E2E06B3909A003121F4E02FE09518
:1002FC00EBBB17C0033029F4E62DED7F6E2EE52DF8
:10030C001EC0063049F4E6E0EA9384DF5E2EE0304E
:10031C0011F0E52D14C0CACFE52DE6605E2EE52D5B
:10032C000EC003C0E02FE095EBBB839B0CC0E62D09
:10033C00E870C9D4C8D44E2E552021F0E52D088183
:10034C0023960895F2CF9098000006B3909A00314E
:10035C00D1F09B9908C0552029F0E52DE2605E2E66
:10036C00E52D1BC0F6CFAC989A9908C0552029F002
:10037C00E52DE1605E2EE52D10C0F6CFAC9AE02F96
:10038C00E095EBBB4DC0839B0CC0E62DE8709BD475
:10039C009AD44E2E552021F0E52D088123960895F0
:1003AC00F2CF9098000006B3909A033029F4E981BB
:1003BC00FA81309709F0AD989B9908C0552029F027
:1003CC00E52DE2605E2EE52D2FC0F6CFAC989A9904
:1003DC0008C0552029F0E52DE1605E2EE52D24C0E6
:1003EC00F6CFAC9A003121F4E02FE095EBBB18C0AE
:1003FC00033021F4E62DED7F6E2E14C0063049F447
:10040C00E6E0EA9307DF5E2EE03011F0E52D0CC03C
:10041C004DCFE52DE6605E2EE62DED7F6E2E02C0F3
:10042C00442483CFAD9AE52D0881239608950A9331
:10043C00AA98AE9AEFEFE7BBE0E1E8BB849B05C05E
:10044C004424552009F090C0F9CF919A9198E2E09C
:10045C00E8BB849B05C04424552009F085C0F9CF26
:10046C00919A9198E1E04E2EE62DE8606E2EA394C1
:10047C0088249924849B21C0E62DE87024D423D4AD
:10048C004E2E552009F05AC0552009F057C08399BB
:10049C0013C0E62DE095E17079F0E0E0E7BB9098B1
:1004AC00000076B2909AEFEFE7BBEBE1E71509F4A9
:1004BC0045C0E62DE1606E2EDDCFAB9A9C9B1BC038
:1004CC00552021F0E52DE4605E2E38C0839912C0D2
:1004DC00E62DE095E17071F0E0E0E7BB909800004C
:1004EC0076B2909AEFEFE7BBEBE1E71539F1E62D29
:1004FC00E1606E2EE3CFE9B3E095E8BB919A919859
:10050C00E3B3E0720E2FAB98AA9AE8B3E03141F452
:10051C00849B04C04424552089F4FACF919A919875
:10052C0044249C9907C0552021F0E52DE5605E2EF2
:10053C0005C0F7CFAA98003009F09CCF57FC14C027
:10054C00E0E1E8BB849B04C04424552069F4FACF55
:10055C00919A9198849B04C04424552029F4FACF95
:10056C00E3E0E8BB919A9198E0E0E7BBE52D0991B7
:10057C000895AA98AE9AEFEFE7BB849B04C044247D
:10058C00552099F4FACF4424AB9A9C9B07C0552074
:10059C0021F0E52DE4605E2E08C0F7CFE9B3E095BD
:1005AC00E8BB919A9198AB98AA9AE52DEF77E03039
:1005BC0021F0E0E0E8BB919A9198AB9AE0E0E7BBC0
:1005CC00E52D08952C973EE140E050E0EEE1F0E09F
:1005DC00DE2EEF2E20E0662410E0E0E0E883EABB9C
:1005EC00E4BBEDE2E2BBE3EEE1BBE3E1E5BF5DD3EF
:1005FC0055247894839B03C0E0E8EBBF5AD3E5E025
:10060C00E3BFE2E0E9BFE0E4EBBFAA24BB24CC24C7
:10061C0000E0033008F057C060FC1BC0839B15C082
:10062C00552009F0CDC29F9B03C0E881EE7F0BC023
:10063C00A881A23031F4E5E0EA93ECDDE03009F07A
:10064C00BFC2E881E160E883E9CF9098000076B200
:10065C00909AE62DEE7F6E2EE02FE030A9F4E9E4BF
:10066C00E71511F40F5F0FC0EDE0E71549F0EAE074
:10067C00E71531F0E3E0E71519F0EBE1E71511F4BC
:10068C0000E001C002E01EC0E13091F4E2E4E715A5
:10069C0011F403E00CC0EDE0E71531F0EAE0E715EA
:1006AC0019F0E3E0E71511F400E001C002E00AC024
:1006BC00EDE0E71531F0EAE0E71519F0E3E0E715B6
:1006CC0009F400E0A6CF00E00A3008F039C0839BA3
:1006DC0004C0552009F074C2FACF9098000076B28D
:1006EC00909AEAE0E71511F4EDE07E2EE02FF0E0B1
:1006FC00AC2FBD2F1196AE0FBF1F7C92EDE0E7150E
:10070C0019F0E2E0E71549F4013031F4A981A33680
:10071C0011F0A33409F401C006C0033019F4A98107
:10072C00A43409F00BC0E02FEF5FF0E0AC2FBD2F2D
:10073C001196AE0FBF1FE0E0EC9302C00F5FC4CF69
:10074C000A3038F0E5E1EA9365DDE03009F038C2B3
:10075C00EBC0A981AF34B9F4E0E0E7BBEABBE4BB82
:10076C00EBBBE5BB96989798959AE0E8EBBFE0E079
:10077C00E9BF9FD255243EE140E050E020E0E62D59
:10078C00EB7F6E2E42CFA981A43771F4EC2FFD2F95
:10079C003296FA93EA9330D23E2FE6E0EA933ADDB2
:1007AC00E03009F00DC231CFA981A43579F4EC2FDA
:1007BC00FD2F3296FA93EA931FD24E2F5F2FE6E06D
:1007CC00EA9328DDE03009F0FBC11FCFA981A636E2
:1007DC0079F4EC2FFD2F3296FA93EA930DD2DE2E9C
:1007EC00EF2EE6E0EA9316DDE03009F0E9C10DCF1B
:1007FC00A981A536C9F4EC2FFD2F3296FA93EA9312
:10080C00FBD10E2FE7E0E01740F0E6E0EA9302DDC3
:10081C00E03009F0D5C1202F06C0E5E1EA93FADCFF
:10082C00E03009F0CDC1F1CEA981AD3609F5AA8130
:10083C00A03351F4E62DE4606E2EE6E0EA93EADC98
:10084C00E03009F0BDC113C0AA81A13351F4E62DEB
:10085C00EB7F6E2EE6E0EA93DDDCE03009F0B0C110
:10086C0006C0E5E1EA93D6DCE03009F0A9C1CDCEB3
:10087C00A981A135F9F4AA81A03349F4E0E0E88319
:10088C00E6E0EA93C7DCE03009F09AC112C0AA8115
:10089C00A13349F4E2E0E883E6E0EA93BBDCE03024
:1008AC0009F08EC106C0E5E1EA93B4DCE03009F052
:1008BC0087C1ABCEA981A93411F5EA81E03349F4A3
:1008CC00EAE1F0E0FA93EA93B7DCE03009F078C1A2
:1008DC0015C0E13349F4E0E3F0E0FA93EA93ACDCC1
:1008EC00E03009F06DC10AC0E23341F4ECE4F0E011
:1008FC00FA93EA93A1DCE03009F062C186CE959BB5
:10090C0013C09598E62DE470DED1DDD1E250E5BB45
:10091C00EFE4E4BBA998EFEFEBBB88EC90E0019718
:10092C00F1F7A99AE0E0E883A981A33541F4E3B398
:10093C00EA9370DC5E2EE03009F042C166CEA981EC
:10094C00AD3039F4E6E0EA9365DCE03009F038C10B
:10095C005CCE442488249924A32EB42EC52EEC2FCF
:10096C00FD2F3196FA93EA93EEE7F0E0FA93EA93CF
:10097C00E2E0EA9384D1E030B1F412DCE62DE260DF
:10098C006E2EA22FE4E09AD1F0E0FA93EA9378DC91
:10099C00E03009F0B1C0E6E0EA933CDCE62DED7FF7
:1009AC006E2E06DCA9C0A981AF3359F4AB9800DCDC
:1009BC003EDDE03009F0A0C0AA9AE6E0EA932ADC1A
:1009CC009BC0A981A23459F4AB98F2DBD2DDE030A4
:1009DC0009F092C0AA9AE6E0EA931CDC8DC0A981CA
:1009EC00A33411F0A33681F4DBDBEA81EA93E8DB74
:1009FC00E03009F081C0DCDBA981A33409F4AE9AA4
:100A0C00E6E0EA9307DC78C0A981AA35B9F4979897
:100A1C00A99888EC90E00197F1F7A99AEFEFEBBB5E
:100A2C00E62DE47050D14FD1E250E5BBEFE4E4BBCE
:100A3C00E0E0EABBE6E0EA93EDDB5EC0A981A4341A
:100A4C0009F057C0103009F440C0AA81A43591F4C4
:100A5C00AB81A03331F4ACDBE6E0EA93DBDB5E2E5A
:100A6C0008C0AB81A13329F49BDBE6E0EA93D2DB2F
:100A7C005E2E2BC0AA81AD3441F4EB81E095EBBB2B
:100A8C00E6E0EA93C7DB5E2E20C0AA81A33439F4DA
:100A9C00EB81E5BBE6E0EA93BDDB5E2E16C0AA81D6
:100AAC00AF3399F4AB81A33411F0AF3321F4E3B33A
:100ABC00EA93B0DB5E2EAB81AD3411F0AF3329F489
:100ACC00E9B3E095EA93A6DB5E2EEC2FFD2F319671
:100ADC00FA93EA93E0E8F0E0FA93EA93E3E0EA931E
:100AEC00CED0E03029F411E0E6E0EA9393DB5E2E01
:100AFC0003C0E5E1EA938EDBAA24BB24CC24E62DCB
:100B0C00E77F6E2E56FE34C053DB52FC0CC0E62D34
:100B1C00E470D9D0D8D0E250E5BBA99888EC90E02D
:100B2C000197F1F7A99AE52DEF70E23021F4E1E09D
:100B3C00EA9370DB1DC0E13021F4E2E0EA936ADB5A
:100B4C0017C0E33021F4E8E0EA9364DB11C0E43031
:100B5C0021F4E9E0EA935EDB0BC0E53021F4E3E03D
:100B6C00EA9358DB02C0E63019F4E5E1EA9352DB74
:100B7C0061FE26C0E62DED7F6E2E00E0E02FE0300A
:100B8C0029F4E0E1E71509F401E00CC0E0E1E71518
:100B9C0011F400E007C000E8E3E0E71519F0E52DDB
:100BAC00E6605E2E003851F0839B04C0442457FC51
:100BBC0001C0FACF9098442476B2909A07FFDECF0A
:100BCC0057FC02C0829B13C0E0E0E7BBEABBE4BB6E
:100BDC00EBBBE5BB96989798959A839903C0909830
:100BEC00909AFBCFE0E8EBBFE0E0E9BF62D0552480
:100BFC0044240BCD2C96FFCFB981A881EC91EA93BC
:100C0C0034D0EE2311F01196F9CFE894EC91ED323B
:100C1C0011F4689402C0EB3209F411966627772719
:100C2C00EC91EA931AD0EE2381F0E62FF72F660FA2
:100C3C00771F660F771F6E0F7F1F660F771FED9163
:100C4C00FF27E0536E0F7F1FEBCFE62FF72F1EF41D
:100C5C00E095F095319622960895E1E0F991F03304
:100C6C0010F0FA3308F0EE270895E1E0F991F03234
:100C7C0029F0F93019F0FD3009F0EE270895002421
:100C8C0011246991E991F991A991B991662351F0D7
:100C9C006A951D90C8953196011421F40020B1F786
:100CAC00EE2702C01018E12D0895E5B7E062E5BF0C
:100CBC000895E5B7E061E5BF88950895AE17E1E0CA
:100CCC0008F0EE270895EE23E1E009F0EE270895F1
:00000001FF
